:0200000480007A
:100000001701100013010100B75700809384471AAD
:100010006F00C00023A0040093844400B757008001
:100020009387C71AE3E8F4FEEF00107AB77F77777B
:0C003000938F7F77730010006F000000BA
:10003C00130101FD23261102232481021304010361
:10004C00232EA4FC232CB4FC8327C4FD83D70700E8
:10005C002315F4FE8317A4FE93D7774093970701DB
:10006C0093D7074193F7F70F93F71700A304F4FE08
:10007C00834794FE638C07008357A4FE93F7F7071E
:10008C009397070193D707416F00C0188357A4FEBD
:10009C0093F777002313F4FE8317A4FE93D737400E
:1000AC009397070193D7074193F7F7002316F4FEB4
:1000BC008357C4FE939747009397070193D7074143
:1000CC000357C4FEB3E7E7002316F4FE831764FE60
:1000DC0063880700130710006388E7066F00400B66
:1000EC000317C4FE9307100263C6E70093072002B0
:1000FC002316F4FE832784FD03A58701832784FD43
:10010C0083A54701832784FD03960700832784FD7D
:10011C0083962700832784FD83D787030317C4FEA8
:10012C00EF201026930705002317F4FE832784FD88
:10013C0083D7E703639407060357E4FE832784FD04
:10014C00239FE7026F008005832784FD13878702B6
:10015C00832784FD83D687038317C4FE138606008A
:10016C009385070013050700EF10905B93070500BC
:10017C002317F4FE832784FD83D7C70363940702F8
:10018C000357E4FE832784FD239EE7026F00800162
:10019C008357A4FE2317F4FE6F0000011300000028
:1001AC006F008000130000000357E4FE832784FDDA
:1001BC0083D787039385070013050700EF3080551D
:1001CC009307050013870700832784FD239CE70210
:1001DC008357E4FE93F7F7072317F4FE8357A4FE27
:1001EC0093F707F09397070193D7074193E7070815
:1001FC009397070193D707410357E4FEB3E7E70052
:10020C0013970701135707418327C4FD2390E70079
:10021C008317E4FE138507008320C10203248102A7
:10022C001301010367800000130101FD2326110255
:10023C002324810213040103232EA4FC232CB4FCDD
:10024C00232AC4FC8327C4FD832544FD13850700A2
:10025C00EFF01FDE930705002317F4FE832784FDC0
:10026C00832544FD13850700EFF09FDC9307050001
:10027C002316F4FE0317E4FE8317C4FEB307F740FE
:10028C00138507008320C10203248102130101039B
:10029C0067800000130101FE232E1100232C810026
:1002AC00130401022326A4FE2324B4FE2322C4FE3D
:1002BC00832744FE639E07088327C4FE83970700A9
:1002CC0093F707F013970701135707418327C4FED1
:1002DC00839707009397070193D7070193D787005C
:1002EC009397070193D707019397070193D707417A
:1002FC00B367F70013970701135707418327C4FE11
:10030C002390E700832784FE8397070093F707F079
:10031C001397070113570741832784FE8397070020
:10032C009397070193D7070193D7870093970701FA
:10033C0093D707019397070193D70741B367F7004A
:10034C001397070113570741832784FE2390E70077
:10035C008327C4FE8397270013870700832784FE17
:10036C0083972700B307F740138507008320C1014B
:10037C00032481011301010267800000130101FEB7
:10038C00232E1100232C8100130401022326A4FE2A
:10039C002324B4FE832784FE039707008327C4FE1F
:1003AC002390E700832784FE039727008327C4FE4E
:1003BC002391E700130000008320C1010324810175
:1003CC001301010267800000130101FC232E1102AE
:1003DC00232C8102130401042326A4FC938705001B
:1003EC002315F4FC231704FE231604FE231504FE28
:1003FC008327C4FC83A747022322F4FE8327C4FC73
:10040C0083D74700231EF4FC232804FC8357A4FC49
:10041C002319F4FC231F04FC6F0080178357E4FDA1
:10042C0093F7F70F9397070193D707412318F4FC21
:10043C00930704FD93850700032544FEEF008075A8
:10044C00232AA4FC032544FEEF00807F2322A4FE74
:10045C00832744FD639807048357A4FE93871700F2
:10046C002315F4FE832744FE83A7070083A74700C8
:10047C008397070093D787409397070193D707413A
:10048C009397070193D7070193F7170093970701E9
:10049C0093D707010357E4FEB387E7002317F4FE55
:1004AC006F00800A8357C4FE938717002316F4FE4F
:1004BC00832744FD83A74700839707009397070181
:1004CC0093D7070193F71700638E0702832744FD28
:1004DC0083A747008397070093D79740939707010B
:1004EC0093D707419397070193D7070193F7170009
:1004FC009397070193D707010357E4FEB387E700EF
:10050C002317F4FE832744FD83A70700638E07029D
:10051C00832744FD83A707002320F4FE832704FED2
:10052C0003A70700832744FD23A0E700832744FE8D
:10053C0003A70700832704FE23A0E700832744FEBC
:10054C00032704FE23A0E700831724FD63C40702DE
:10055C00831724FD9397070193D7070193871700FF
:10056C009397070193D707019397070193D70741F7
:10057C002319F4FC8317E4FD9397070193D7070124
:10058C00938717009397070193D70701231FF4FC58
:10059C000317E4FD8317C4FDE342F7E88357C4FE59
:1005AC00939727009397070193D707010357A4FE4E
:1005BC00B387E7409397070193D707010357E4FEEE
:1005CC00B387E7002317F4FE8317A4FC635EF000E7
:1005DC000326C4FCB707008093854723032544FEFC
:1005EC00EF00406C2322A4FE832744FE83A7070060
:1005FC0013850700EF00004B232CA4FC930704FD8C
:10060C0093850700032544FEEF00C0582320A4FE69
:10061C00832704FE63920704832744FE83A7070005
:10062C002320F4FE6F004003832744FE83A747007A
:10063C00839707000357E4FE930507001385070013
:10064C00EF30C01D930705002317F4FE832704FE2B
:10065C0083A707002320F4FE832704FEE39607FC00
:10066C00832744FE83A7070093850700032584FD99
:10067C00EF00004B232CA4FC13060000B7070080EE
:10068C009385072A032544FEEF00C0612322A4FEB4
:10069C00832744FE83A707002320F4FE6F0040034A
:1006AC00832744FE83A74700839707000357E4FE84
:1006BC009305070013850700EF30401693070500DC
:1006CC002317F4FE832704FE83A707002320F4FEE0
:1006DC00832704FEE39607FC8357E4FE138507008B
:1006EC008320C103032481031301010467800000EC
:1006FC00130101FB23261104232481041304010597
:10070C00232EA4FA232CB4FA93070600231BF4FA25
:10071C00930740012322F4FE832544FE0325C4FBEA
:10072C00EF40C03A930705009387E7FF2320F4FEC0
:10073C00032784FB832704FE93973700B307F70046
:10074C00232EF4FC8327C4FD2324F4FC032784FC10
:10075C00832704FE93972700B307F700232CF4FCA0
:10076C00832784FB232AF4FC832744FD23A0070062
:10077C00032784FC832744FD23A2E700832744FD41
:10078C0083A7470023910700832744FD83A74700D5
:10079C003787FFFF130707082390E700832784FBA5
:1007AC0093878700232CF4FA832784FC93874700D4
:1007BC002324F4FCB787FFFF93C7F7FF2313F4FC44
:1007CC009307F0FF2312F4FC930684FC130684FBBE
:1007DC00930544FC832784FD0327C4FD032544FDB6
:1007EC00EF00801D232604FE6F00400A8327C4FE01
:1007FC001397070113570701835764FBB347F7009F
:10080C009397070193D7070193F7F7002318F4FC8C
:10081C00835704FD9397370013970701135707016C
:10082C008327C4FE9397070193D7070193F77700AB
:10083C009397070193D70701B367F7002317F4FCCD
:10084C008317E4FC9397870013970701135707410D
:10085C008317E4FCB367F7009397070193D707411D
:10086C002312F4FC930684FC130684FB930544FCCE
:10087C00832784FD0327C4FD032544FDEF00C0132B
:10088C008327C4FE938717002326F4FE0327C4FE98
:10089C00832704FEE36CF7F4832744FD83A707004A
:1008AC002324F4FE930710002326F4FE6F00000DA2
:1008BC00832704FE9305500013850700EF400021A9
:1008CC0093070500138707008327C4FE63F4E70230
:1008DC008327C4FE138717002326E4FE032784FE18
:1008EC00032747009397070193D707412311F7007C
:1008FC006F0000088327C4FE138717002326E4FE2D
:10090C001397070113570701835764FBB347F7008D
:10091C002319F4FC8327C4FE9397070193D707018F
:10092C00939787009397070193D7070193F7077065
:10093C009397070193D70701035724FDB3E7E7000B
:10094C009397070193D707019396070193D6064116
:10095C00832784FE83A74700374700001307F7FF60
:10096C0033F7E60013170701135707412391E700EC
:10097C00832784FE83A707002324F4FE832784FEA9
:10098C0083A70700E39607F213060000B707008061
:10099C009385072A032544FDEF00C030232AA4FCCD
:1009AC00832744FD138507008320C104032481049D
:1009BC001301010567800000130101FC232E1102B5
:1009CC00232C810213040104232EA4FC232CB4FC3D
:1009DC00232AC4FC2328D4FC2326E4FC2324F4FC83
:1009EC00832744FD83A70700938787000327C4FC54
:1009FC0063E6E700930700006F008009832704FD7E
:100A0C0083A7070093874700032784FC63E6E7006E
:100A1C00930700006F00C007832744FD83A70700DE
:100A2C002326F4FE832744FD83A707001387870042
:100A3C00832744FD23A0E7008327C4FD03A70700F9
:100A4C008327C4FE23A0E7008327C4FD0327C4FE2D
:100A5C0023A0E700832704FD03A707008327C4FE18
:100A6C0023A2E700832704FD83A707001387470011
:100A7C00832704FD23A0E7008327C4FE83A7470038
:100A8C00832584FD13850700EFF05F8F8327C4FE59
:100A9C00138507008320C103032481031301010480
:100AAC0067800000130101FD23261102232481021B
:100ABC0013040103232EA4FC8327C4FD83A7070082
:100ACC002326F4FE8327C4FD83A747002324F4FECA
:100ADC008327C4FE03A747008327C4FD23A2E70096
:100AEC008327C4FE032784FE23A2E7008327C4FDCB
:100AFC0083A7070003A707008327C4FD23A0E700F3
:100B0C008327C4FE23A007008327C4FE1385070098
:100B1C008320C102032481021301010367800000BA
:100B2C00130101FD23261102232481021304010366
:100B3C00232EA4FC232CB4FC8327C4FD83A74700DD
:100B4C002326F4FE832784FD03A747008327C4FDD7
:100B5C0023A2E700832784FD0327C4FE23A2E7001A
:100B6C00832784FD03A707008327C4FD23A0E70088
:100B7C00832784FD0327C4FD23A0E7008327C4FD3E
:100B8C00138507008320C102032481021301010392
:100B9C0067800000130101FE232E1100232C81001D
:100BAC00130401022326A4FE2324B4FE832784FE0F
:100BBC008397270063C407046F0000018327C4FEDA
:100BCC0083A707002326F4FE8327C4FE638E070049
:100BDC008327C4FE83A7470003972700832784FE3F
:100BEC0083972700E31CF7FC8327C4FE6F000004E7
:100BFC008327C4FE83A707002326F4FE8327C4FEA5
:100C0C00638407028327C4FE83A7470083970700EA
:100C1C009397070193D7070193F7F70F032784FEE8
:100C2C0003170700E396E7FC8327C4FE1385070030
:100C3C008320C1010324810113010102678000009C
:100C4C00130101FD23261102232481021304010345
:100C5C00232EA4FC232604FE6F00C0028327C4FDB0
:100C6C0083A707002324F4FE8327C4FD0327C4FEB7
:100C7C0023A0E7008327C4FD2326F4FE832784FEEC
:100C8C00232EF4FC8327C4FDE39A07FC8327C4FEC0
:100C9C00138507008320C102032481021301010381
:100CAC0067800000130101FB232611042324810417
:100CBC0013040105232EA4FA232CB4FA232AC4FA14
:100CCC0093071000232EF4FC8327C4FB2326F4FE89
:100CDC00232E04FA232004FE232C04FC6F0080181E
:100CEC00832784FD93871700232CF4FC8327C4FEF1
:100CFC002324F4FE232A04FC232604FC6F000003A7
:100D0C00832744FD93871700232AF4FC832784FE52
:100D1C0083A707002324F4FE832784FE6380070245
:100D2C008327C4FC938717002326F4FC0327C4FCF9
:100D3C008327C4FDE346F7FC6F008000130000001E
:100D4C008327C4FD2328F4FC6F00C00F832744FDC8
:100D5C0063940702832784FE2322F4FE832784FEF8
:100D6C0083A707002324F4FE832704FD9387F7FF52
:100D7C002328F4FC6F00800A832704FD6386070098
:100D8C00832784FE639407028327C4FE2322F4FE88
:100D9C008327C4FE83A707002326F4FE832744FD84
:100DAC009387F7FF232AF4FC6F0040078327C4FEC8
:100DBC0003A74700832784FE83A64700832784FB71
:100DCC00032644FB9385060013050700E780070004
:100DDC00930705006344F0028327C4FE2322F4FE2C
:100DEC008327C4FE83A707002326F4FE832744FD34
:100DFC009387F7FF232AF4FC6F004002832784FEBD
:100E0C002322F4FE832784FE83A707002324F4FE09
:100E1C00832704FD9387F7FF2328F4FC832704FE24
:100E2C00638A0700832704FE032744FE23A0E70000
:100E3C006F00C000832744FE232EF4FA832744FE60
:100E4C002320F4FE832744FDE342F0F0832704FDC6
:100E5C006356F000832784FEE39A07EE832784FE13
:100E6C002326F4FE8327C4FEE39C07E6832704FEB7
:100E7C0023A00700032784FD9307100063C6E70037
:100E8C008327C4FB6F0040018327C4FD9397170091
:100E9C00232EF4FC6FF05FE3138507008320C1045D
:100EAC00032481041301010567800000130101FD77
:100EBC00232611022324810213040103232EA4FCF4
:100ECC008327C4FD2324F4FE832784FE83A7C70154
:100EDC002322F4FE832784FE239C0702832784FEAF
:100EEC00239D0702832784FE239E0702832784FE0B
:100EFC00239F0702232604FE6F00000A93051000AF
:100F0C00032584FEEFF04FCC930705002311F4FE6C
:100F1C00832784FE03D78703835724FE930507009A
:100F2C0013850700EF20007F930705001387070048
:100F3C00832784FE239CE7029305F0FF032584FEA0
:100F4C00EFF08FC8930705002311F4FE832784FE6E
:100F5C0003D78703835724FE9305070013850700E7
:100F6C00EF20407B9307050013870700832784FE3F
:100F7C00239CE7028327C4FE639A0700832784FE21
:100F8C0003D78703832784FE239DE7028327C4FEB0
:100F9C00938717002326F4FE0327C4FE832744FE01
:100FAC00E36EF7F493070000138507008320C1025A
:100FBC0003248102130101036780000013010181E6
:100FCC002326117E2324817E2322917E1304017F0C
:100FDC00130101F9B7F7FFFF938707FFB38787006A
:100FEC0023AEA77AB7F7FFFF938707FFB387870076
:100FFC0023ACB77A231604FE231504FE9307F0FFE7
:10100C002314F4FE231304FE231B04FCB7F7FFFF89
:10101C00938707FFB387870037F7FFFF1307C77B5B
:10102C00130707FFB30687001307C4F81307270439
:10103C0003A6877B9385060013050700EF20501548
:10104C0013051000EF20404D9307050093970701FF
:10105C0093D707412316F4F813052000EF20C04B5B
:10106C00930705009397070193D707412317F4F8CB
:10107C0013053000EF20404A9307050093970701B2
:10108C0093D707412318F4F813054000EF20C0480C
:10109C00930705002324F4FA13055000EF20C047F2
:1010AC00930705002326F4FA8327C4FA63960700F6
:1010BC00930770002326F4FA8317C4F8639207028F
:1010CC008317E4F8639E0700831704F9639A0700FB
:1010DC00231604F8231704F8930760062318F4F872
:1010EC000317C4F893071000631AF7028317E4F888
:1010FC0063960702831704F963920702B73700005F
:10110C00938757412316F4F8B7370000938757415C
:10111C002317F4F8930760062318F4F8231704FE3A
:10112C006F0080130357E4FE930707009397570053
:10113C00B387E74093972700B387E700939747005F
:10114C00938607000357E4FEB7F7FFFF9387C77C2E
:10115C00938707FFB3878700B386D70093070700F1
:10116C0093974700B387E70093972700938707FF70
:10117C00B387870023A2D7FA0357E4FE930707002F
:10118C0093974700B387E70093972700938707FF50
:10119C00B38787001307007D23AAE7FA0357E4FE01
:1011AC008316C4F89307070093974700B387E700AB
:1011BC0093972700938707FFB3878700239ED7F861
:1011CC000357E4FE8316E4F8930707009397470050
:1011DC00B387E70093972700938707FFB3878700B0
:1011EC00239FD7F80357E4FE831604F993070700EF
:1011FC0093974700B387E70093972700938707FFE0
:10120C00B38787002390D7FA0357E4FE93070700B0
:10121C0093974700B387E70093972700938707FFBF
:10122C00B3878700239E07FC0357E4FE8326C4FA8A
:10123C009307070093974700B387E700939727001E
:10124C00938707FFB387870023AED7FA8357E4FE53
:10125C00938717002317F4FE8357E4FEE38407EC0F
:10126C00231704FE6F0080038357E4FE130710005E
:10127C00B317F700138707008327C4FAB377F70077
:10128C00638807008357A4FE938717002315F4FE89
:10129C008357E4FE938717002317F4FE0357E4FEED
:1012AC0093072000E3F2E7FC231704FE6F0080068F
:1012BC000357E4FE9307070093974700B387E700B3
:1012CC0093972700938707FFB387870083A747FB74
:1012DC000357A4FE8354E4FE93050700138507000F
:1012EC00EF30C07E93070500138707009387040037
:1012FC0093974700B387970093972700938707FF2F
:10130C00B387870023AAE7FA8357E4FE9387170075
:10131C002317F4FE8357E4FEE38C07F8231704FE2F
:10132C006F00000C8357E4FE13071000B317F7008F
:10133C00138707008327C4FAB377F700638C070879
:10134C00232004FE6F00C007032704FE9307070049
:10135C0093974700B387E70093972700938707FF7E
:10136C00B387870083A447FA832744FA0357C4FE44
:10137C009305070013850700EF3080729307050073
:10138C00138707008357E4FE13861700B386E40027
:10139C00032704FE9307070093974700B387E700E2
:1013AC003387C700930744F913172700B307F700D7
:1013BC0023A0D700832704FE938717002320F4FE75
:1013CC00832704FEE38207F88357C4FE9387170034
:1013DC002316F4FE8357E4FE938717002317F4FEBD
:1013EC000357E4FE93072000E3FEE7F2231704FE05
:1013FC006F00801E0357E4FE930707009397470086
:10140C00B387E70093972700938707FFB38787007D
:10141C0083A7C7FB93F71700638C0706832644FA50
:10142C000357E4FE9307070093974700B387E70041
:10143C0093972700938707FFB387870083A587FAC5
:10144C000357E4FE9307070093974700B387E70021
:10145C0093972700938707FFB38787008397C7F974
:10146C008354E4FE1386070013850600EFF04FA8A3
:10147C00130705009387040093974700B3879700E1
:10148C0093972700938707FFB387870023A0E7FC78
:10149C000357E4FE9307070093974700B387E700D1
:1014AC0093972700938707FFB387870083A7C7FB12
:1014BC0093F727006380070A032544FA0357E4FED9
:1014CC009307070093974700B387E700939727008C
:1014DC00938707FFB387870083A5C7FA0357E4FEFA
:1014EC009307070093974700B387E700939727006C
:1014FC00938707FFB38787008397C7F99386070005
:10150C000357E4FE9307070093974700B387E70060
:10151C0093972700938707FFB38787008397E7F993
:10152C009397070133E6F6000357E4FE9306C4F8DD
:10153C009307070093974700B387E700939727001B
:10154C0093870702B387F60093878700938607007B
:10155C00EF00D0430357E4FE93070700939747002F
:10156C00B387E70093972700938707FFB38787001C
:10157C0083A7C7FB93F74700638A0704832644FAC3
:10158C000357E4FE9307070093974700B387E700E0
:10159C0093972700938707FFB38787008395C7F935
:1015AC000357E4FE9307070093974700B387E700C0
:1015BC0093972700938707FFB387870083A707FBC1
:1015CC001386070013850600EF1050068357E4FEC0
:1015DC00938717002317F4FE8357E4FEE38C07E090
:1015EC00832784FA6390070A232E04FC93071000C8
:1015FC002324F4FA6F004004032784FA93070700AE
:10160C0093972700B387E700939717002324F4FAE6
:10161C00EF20402C9307C4F813850700EFF01F89C7
:10162C00EF20802EEF2080319307050013850700F3
:10163C00EF204033232EA4FC8327C4FDE38E07FA4E
:10164C008327C4FD232CF4FC832784FD63960700B9
:10165C0093071000232CF4FC832484FA832584FD47
:10166C001305A000EF308046930705009387170001
:10167C009385070013850400EF3080429307050023
:10168C002324F4FAEF2000259307C4F813850700F0
:10169C00EFF0DF81EF204027EF20402A2328A4FC25
:1016AC008317C4F8035764FD9305070013850700DF
:1016BC00EF20C01693070500231BF4FC8317E4F8F6
:1016CC00035764FD9305070013850700EF200015F1
:1016DC0093070500231BF4FC831704F9035764FDDF
:1016EC009305070013850700EF20401393070500AF
:1016FC00231BF4FC832744FA9397070193D70741E4
:10170C00035764FD9305070013850700EF200011B4
:10171C0093070500231BF4FC835764FD37F7000087
:10172C001307579F6380E70A37F700001307579F8B
:10173C006342F70C37970000130727A06382E70476
:10174C0037970000130727A06346F70A3787000076
:10175C00130757B06380E70437870000130757B0AF
:10176C00634AF708372700001307278F6388E706BB
:10177C00375700001307F7EA638AE7026F00800708
:10178C00231404FEB75700801385C7B9EF30C0256A
:10179C006F000007930710002314F4FEB757008066
:1017AC001385C7BCEF3040246F00800593072000E1
:1017BC002314F4FEB7570080138587BFEF30C02287
:1017CC006F000004930730002314F4FEB757008019
:1017DC001385C7C2EF3040216F0080029307400091
:1017EC002314F4FEB75700801385C7C5EF30C01F14
:1017FC006F0000019307F0FF2313F4FE13000000A9
:10180C00831784FE63C4073A231704FE6F00003964
:10181C000357E4FE9307070093974700B387E7004D
:10182C0093972700938707FFB3878700239E07FCB6
:10183C000357E4FE9307070093974700B387E7002D
:10184C0093972700938707FFB387870083A7C7FB6E
:10185C0093F717006384070E0357E4FE9307070002
:10186C0093974700B387E70093972700938707FF69
:10187C00B387870003D767FD831784FEB7560080B4
:10188C009386861193971700B387F60083D70700CA
:10189C006306F70A8355E4FE0357E4FE930707003B
:1018AC0093974700B387E70093972700938707FF29
:1018BC00B387870083D767FD13860700831784FEE1
:1018CC00375700801307871193971700B307F7005A
:1018DC0083D7070093860700B7570080138587C806
:1018EC00EF3080100357E4FE9307070093974700EF
:1018FC00B387E70093972700938707FFB387870089
:10190C008397C7FD9397070193D707019387170018
:10191C009397070193D707019396070193D6064136
:10192C009307070093974700B387E7009397270027
:10193C00938707FFB3878700239ED7FC0357E4FEEA
:10194C009307070093974700B387E7009397270007
:10195C00938707FFB387870083A7C7FB93F72700FD
:10196C006384070E0357E4FE930707009397470021
:10197C00B387E70093972700938707FFB387870008
:10198C0003D787FD831784FEB756008093864612D3
:10199C0093971700B387F60083D707006306F70AFF
:1019AC008355E4FE0357E4FE930707009397470023
:1019BC00B387E70093972700938707FFB3878700C8
:1019CC0083D787FD13860700831784FE3757008063
:1019DC001307471293971700B307F70083D7070035
:1019EC0093860700B7570080138587CBEF20D07FF5
:1019FC000357E4FE9307070093974700B387E7006C
:101A0C0093972700938707FFB38787008397C7FDBA
:101A1C009397070193D707019387170093970701B3
:101A2C0093D707019396070193D6064193070700B6
:101A3C0093974700B387E70093972700938707FF97
:101A4C00B3878700239ED7FC0357E4FE9307070058
:101A5C0093974700B387E70093972700938707FF77
:101A6C00B387870083A7C7FB93F747006384070EF0
:101A7C000357E4FE9307070093974700B387E700EB
:101A8C0093972700938707FFB387870003D7A7FD9A
:101A9C00831784FEB756008093860613939717001E
:101AAC00B387F60083D707006306F70A8355E4FE75
:101ABC000357E4FE9307070093974700B387E700AB
:101ACC0093972700938707FFB387870083D7A7FDDA
:101ADC0013860700831784FE3757008013070713FC
:101AEC0093971700B307F70083D707009386070077
:101AFC00B75700801385C7CEEF20106F0357E4FE55
:101B0C009307070093974700B387E7009397270045
:101B1C00938707FFB38787008397C7FD93970701C8
:101B2C0093D70701938717009397070193D7070162
:101B3C009396070193D606419307070093974700A6
:101B4C00B387E70093972700938707FFB387870036
:101B5C00239ED7FC0357E4FE930707009397470097
:101B6C00B387E70093972700938707FFB387870016
:101B7C008397C7FD1397070113570701835764FE1B
:101B8C00B307F7009397070193D707012313F4FECC
:101B9C008357E4FE938717002317F4FE0357E4FEE4
:101BAC00B757008083A78719E364F7C6EF10104C72
:101BBC009307050013870700835764FEB307F700EC
:101BCC009397070193D707012313F4FE832744FA55
:101BDC0093850700B75700801385C7D1EF20D060DD
:101BEC00832504FDB7570080138547D3EF20D05FC2
:101BFC00032504FDEF10105793070500938507008C
:101C0C00B75700801385C7D4EF20105E032504FD61
:101C1C00EF1050559307050063880704032784FAD7
:101C2C00B757008083A78719938507001305070012
:101C3C00EF2010679307050093840700032504FD2C
:101C4C00EF1050529307050093850700138504008D
:101C5C00EF20D0679307050093850700B7570080E6
:101C6C00138547D6EF205058032504FDEF10904FF5
:101C7C00130705009307900063E6E702B75700804F
:101C8C001385C7D7EF205056831764FE939707012F
:101C9C0093D70701938717009397070193D70701F1
:101CAC002313F4FE032784FAB757008083A7871900
:101CBC009385070013050700EF20905E930705003E
:101CCC0093850700B75700801385C7DBEF20D051F1
:101CDC00B7570080938547DDB7570080138507DE23
:101CEC00EF209050B7570080938587DFB75700805F
:101CFC00138507E5EF20504FB7570080938587E693
:101D0C00B7570080138507E7EF20104E835764FD0B
:101D1C0093850700B7570080138587E8EF20D04CD8
:101D2C008327C4FA93F7170063800706231704FE72
:101D3C006F0080048356E4FE0357E4FE930707000C
:101D4C0093974700B387E70093972700938707FF84
:101D5C00B387870083D767FD13860700938506003A
:101D6C00B7570080138547EAEF2010488357E4FEED
:101D7C00938717002317F4FE0357E4FEB757008030
:101D8C0083A78719E368F7FA8327C4FA93F7270028
:101D9C0063800706231704FE6F0080048356E4FE5D
:101DAC000357E4FE9307070093974700B387E700B8
:101DBC0093972700938707FFB387870083D787FD07
:101DCC001386070093850600B7570080138507EC30
:101DDC00EF2090418357E4FE938717002317F4FEFE
:101DEC000357E4FEB757008083A78719E368F7FA17
:101DFC008327C4FA93F7470063800706231704FE72
:101E0C006F0080048356E4FE0357E4FE930707003B
:101E1C0093974700B387E70093972700938707FFB3
:101E2C00B387870083D7A7FD138607009385060029
:101E3C00B75700801385C7EDEF20103B8357E4FEA6
:101E4C00938717002317F4FE0357E4FEB75700805F
:101E5C0083A78719E368F7FA231704FE6F00800441
:101E6C008356E4FE0357E4FE93070700939747005D
:101E7C00B387E70093972700938707FFB387870003
:101E8C0083D747FD1386070093850600B75700805C
:101E9C00138587EFEF2050358357E4FE93871700A7
:101EAC002317F4FE0357E4FEB757008083A7871966
:101EBC00E368F7FA831764FE63980700B75700804E
:101ECC00138547F1EF205032831764FE6358F000FE
:101EDC00B7570080138507F6EF201031831764FE87
:101EEC0063D80700B7570080138547F7EF20D02F32
:101EFC009307C4F89387270413850700EF10502C21
:101F0C009307000013850700130101078320C17E8E
:101F1C000324817E8324417E1301017F67800000AE
:101F2C00130101FC232E1102232C81021304010442
:101F3C002326A4FC93870500130706002315F4FC45
:101F4C00930707002314F4FC8327C4FC83A7070022
:101F5C002326F4FE8327C4FC83A7C7002324F4FEA6
:101F6C008327C4FC83A747002322F4FE8327C4FCE9
:101F7C0083A787002320F4FE8357A4FC231FF4FCC3
:101F8C008317E4FD13870700832604FE032644FE13
:101F9C00832584FE0325C4FEEF00C00393070500D0
:101FAC0013870700835784FC9385070013050700EC
:101FBC00EF10D006930705002314F4FC835784FC20
:101FCC00138507008320C10303248103130101043B
:101FDC0067800000130101FC232E1102232C8102C7
:101FEC0013040104232EA4FC232CB4FC232AC4FCCC
:101FFC002328D4FC930707002317F4FC231704FEB3
:10200C008357E4FC13870700B7F7FFFFB367F700AC
:10201C002316F4FE8317E4FC13860700832544FD86
:10202C000325C4FDEF00405E8317E4FC9386070094
:10203C00032644FD832584FD0325C4FDEF00804C5D
:10204C008317C4FE13860700832584FD0325C4FD76
:10205C00EF00403993070500138707008357E4FE10
:10206C009385070013050700EF10407B93070500CD
:10207C002317F4FE832604FD032644FD832584FDEB
:10208C000325C4FDEF00C0678317C4FE1386070049
:10209C00832584FD0325C4FDEF00C03493070500A0
:1020AC00138707008357E4FE938507001305070089
:1020BC00EF10C076930705002317F4FE832604FD6A
:1020CC00032644FD832584FD0325C4FDEF00C07465
:1020DC008317C4FE13860700832584FD0325C4FDE6
:1020EC00EF00403093070500138707008357E4FE89
:1020FC009385070013050700EF1040729307050046
:10210C002317F4FE832604FD032644FD832584FD5A
:10211C000325C4FDEF00500A8317C4FE1386070085
:10212C00832584FD0325C4FDEF00C02B9307050018
:10213C00138707008357E4FE9385070013050700F8
:10214C00EF10C06D930705002317F4FE8357E4FCD2
:10215C00B307F0409397070193D7070193970701B3
:10216C0093D7074113860700832544FD0325C4FD3F
:10217C00EF0080498317E4FE138507008320C10319
:10218C00032481031301010467800000130101FC87
:10219C00232E1102232C8102130401042326A4FCF8
:1021AC002324B4FC2322C4FC2320D4FC232004FECF
:1021BC00930710002326F4FE232404FE232204FE9E
:1021CC00832744FC639A0702930710002322F4FC34
:1021DC006F008002832784FE938717002324F4FE6C
:1021EC00832584FE032584FEEF20900B93070500C6
:1021FC00939737002322F4FE032744FE8327C4FC65
:10220C00E36AF7FC832784FE9387F7FF2320F4FE11
:10221C00832784FC9387F7FF93F7C7FF93874700C7
:10222C00232EF4FC832504FE032504FEEF20500727
:10223C0093070500939717000327C4FDB307F70016
:10224C00232CF4FC232404FE6F000012232204FE32
:10225C006F000010832544FC0325C4FEEF205004BE
:10226C0093070500138707009357F74193D707018E
:10227C003307F7001317070113570701B307F7408C
:10228C002322F4FC832744FC1397070113570701FF
:10229C008327C4FE9397070193D70701B307F70071
:1022AC009397070193D70701231BF4FC832504FEA6
:1022BC00032584FEEF20C07E9307050013870700DB
:1022CC00832744FEB307F70093971700032784FD79
:1022DC00B307F700035764FD2390E7008327C4FE80
:1022EC001397070113570701835764FDB307F700D2
:1022FC009397070193D70701231BF4FC835764FDC5
:10230C0093F7F70F231BF4FC832504FE032584FEAF
:10231C00EF2000799307050013870700832744FEFD
:10232C00B307F700939717000327C4FDB307F70013
:10233C00035764FD2390E7008327C4FE938717009F
:10234C002326F4FE832744FE938717002322F4FEF2
:10235C00032744FE832704FEE36EF7EE832784FEF7
:10236C00938717002324F4FE032784FE832704FE9F
:10237C00E36EF7EC832704FC0327C4FD23A2E700DC
:10238C00832704FC032784FD23A4E700832504FE94
:10239C00032504FEEF20C0709307050093971700E8
:1023AC00032784FDB307F7009387F7FF93F7C7FF65
:1023BC009387470013870700832704FC23A6E700B5
:1023CC00032704FE832704FC23A0E700832704FED5
:1023DC00138507008320C103032481031301010427
:1023EC0067800000130101FC232E1102232C8102B3
:1023FC00130401042326A4FC2324B4FC9307060035
:10240C002313F4FC232604FE232404FE232C04FCB7
:10241C00231304FE232004FE6F00800C232E04FCE7
:10242C006F00800A8325C4FC032504FEEF2040675F
:10243C0093070500138707008327C4FDB307F70034
:10244C0093972700032784FCB307F70083A70700A3
:10245C00232CF4FC0327C4FE832784FDB307F70069
:10246C002326F4FE831764FC0327C4FE63D0E70223
:10247C00835764FE9387A7009397070193D70701AF
:10248C002313F4FE232604FE6F00C002032784FDF1
:10249C00832784FEB3A7E70093F7F70F1387070092
:1024AC00835764FEB307F7009397070193D707018F
:1024BC002313F4FE832784FD2324F4FE8327C4FD19
:1024CC0093871700232EF4FC0327C4FD8327C4FC39
:1024DC00E36AF7F4832704FE938717002320F4FEA6
:1024EC00032704FE8327C4FCE36AF7F2831764FE18
:1024FC00138507008320C103032481031301010406
:10250C0067800000130101FC232E1102232C810291
:10251C00232A9102232821032326310313040104C7
:10252C002326A4FC2324B4FC2322C4FC938706009A
:10253C002311F4FC232E04FC6F00000A232C04FC52
:10254C006F0000088325C4FC0325C4FDEF20405513
:10255C009307050013870700832784FDB307F70053
:10256C0093971700032744FCB307F70083970700E2
:10257C0093890700031924FC8325C4FC0325C4FD9F
:10258C00EF2000529307050013870700832784FD73
:10259C00B307F70093972700032784FCB304F700D5
:1025AC009305090013850900EF20804F9307050060
:1025BC0023A0F400832784FD93871700232CF4FCBD
:1025CC00032784FD8327C4FCE36EF7F68327C4FD41
:1025DC0093871700232EF4FC0327C4FD8327C4FC28
:1025EC00E36EF7F413000000130000008320C10316
:1025FC000324810383244103032901038329C1029A
:10260C001301010467800000130101FD2326110250
:10261C00232481022322910213040103232EA4FC00
:10262C00232CB4FC93070600231BF4FC232604FE86
:10263C006F00800A232404FE6F0080088325C4FDEC
:10264C000325C4FEEF20C045930705001387070040
:10265C00832784FEB307F70093971700032784FDA5
:10266C00B307F70083970700139707011357070168
:10267C00835764FDB307F7009394070193D40401C7
:10268C008325C4FD0325C4FEEF208041930705007C
:10269C0013870700832784FEB307F700939717006F
:1026AC00032784FDB307F700139704011357074161
:1026BC002390E700832784FE938717002324F4FEDE
:1026CC00032784FE8327C4FDE36AF7F68327C4FE41
:1026DC00938717002326F4FE0327C4FE8327C4FD2B
:1026EC00E36AF7F413000000130000008320C1021A
:1026FC00032481028324410213010103678000003B
:10270C00130101FD232611022324810223229102AD
:10271C0013040103232EA4FC232CB4FC232AC4FC95
:10272C002328D4FC232604FE6F00800C8327C4FED0
:10273C0093972700032784FDB307F70023A0070016
:10274C00232404FE6F0040098327C4FE93972700BF
:10275C00032784FDB307F70083A407008325C4FD7A
:10276C000325C4FEEF20C033930705001387070031
:10277C00832784FEB307F70093971700032744FDC4
:10278C00B307F7008397070093860700832784FE1F
:10279C0093971700032704FDB307F70083970700EF
:1027AC009385070013850600EF20802F9307050003
:1027BC00938607008327C4FE93972700032784FD85
:1027CC00B307F7003387D40023A0E700832784FEE8
:1027DC00938717002324F4FE032784FE8327C4FD6C
:1027EC00E364F7F68327C4FE938717002326F4FED1
:1027FC000327C4FE8327C4FDE36AF7F2130000002D
:10280C00130000008320C1020324810283244102AF
:10281C001301010367800000130101FD232611023F
:10282C002324810223229102232021031304010378
:10283C00232EA4FC232CB4FC232AC4FC2328D4FC74
:10284C00232604FE6F008014232404FE6F008012E4
:10285C008325C4FD0325C4FEEF20802493070500C7
:10286C0013870700832784FEB307F700939727008D
:10287C00032784FDB307F70023A00700232204FEDF
:10288C006F00C00D8325C4FD0325C4FEEF2040213D
:10289C009307050013870700832784FEB307F7000F
:1028AC0093972700032784FDB307F70083A4070041
:1028BC008325C4FD0325C4FEEF20801E930705006D
:1028CC0013870700832744FEB307F700939717007D
:1028DC00032744FDB307F70083970700138907000C
:1028EC008325C4FD032544FEEF20801B93070500C0
:1028FC0013870700832784FEB307F700939717000D
:10290C00032704FDB307F70083970700938507009F
:10291C0013050900EF20C018930705001389070061
:10292C008325C4FD0325C4FEEF2080179307050003
:10293C0013870700832784FEB307F70093972700BC
:10294C00032784FDB307F7003387240123A0E70096
:10295C00832744FE938717002322F4FE032744FEAB
:10296C008327C4FDE360F7F2832784FE9387170067
:10297C002324F4FE032784FE8327C4FDE36AF7ECCB
:10298C008327C4FE938717002326F4FE0327C4FE77
:10299C008327C4FDE36AF7EA13000000130000006C
:1029AC008320C102032481028324410203290102F2
:1029BC001301010367800000130101FD232611029E
:1029CC00232481022322910213040103232EA4FC4D
:1029DC00232CB4FC232AC4FC2328D4FC232604FE79
:1029EC006F008017232404FE6F0080158325C4FD1F
:1029FC000325C4FEEF20C00A9307050013870700C8
:102A0C00832784FEB307F70093972700032784FDE1
:102A1C00B307F70023A00700232204FE6F00C010A9
:102A2C008325C4FD0325C4FEEF2080079307050012
:102A3C0013870700832744FEB307F700939717000B
:102A4C00032744FDB307F70083970700938407001F
:102A5C008325C4FD032544FEEF2080049307050065
:102A6C0013870700832784FEB307F700939717009B
:102A7C00032704FDB307F70083970700938507002E
:102A8C0013850400EF20C001930705002320F4FEFA
:102A9C008325C4FD0325C4FEEF20800093070500A9
:102AAC0013870700832784FEB307F700939727004B
:102ABC00032784FDB307F70083A70700938407005F
:102ACC00832704FE93D7274013F7F700832704FED0
:102ADC0093D7574093F7F707938507001305070023
:102AEC00EF10107C93070500B384F4008325C4FD1C
:102AFC000325C4FEEF10D07A930705001387070057
:102B0C00832784FEB307F70093972700032784FDE0
:102B1C00B307F7001387040023A0E700832744FEC4
:102B2C00938717002322F4FE032744FE8327C4FD5A
:102B3C00E368F7EE832784FE938717002324F4FEC3
:102B4C00032784FE8327C4FDE362F7EA8327C4FED0
:102B5C00938717002326F4FE0327C4FE8327C4FDA6
:102B6C00E362F7E813000000130000008320C102A9
:102B7C0003248102832441021301010367800000B6
:102B8C00130101F9232611062324810613040107DE
:102B9C00232EA4F8232CB4F8930506001386060004
:102BAC00930607001387070093870500231BF4F88F
:102BBC0093070600231AF4F8938706002319F4F8F8
:102BCC00930707002318F4F8832784F92320F4FAD9
:102BDC00232604FE6F00C0040327C4FE930744FAA7
:102BEC0013172700B307F70023A007000327C4FE21
:102BFC00930744FA13172700B307F70003A707003E
:102C0C008326C4FE930744FC93962600B387F600F4
:102C1C0023A0E7008327C4FE938717002326F4FE26
:102C2C000327C4FE93077000E3F8E7FA6F008004F3
:102C3C00130744FA930704FA93050700138507005A
:102C4C00EF00404D2322A4FE032744FE930744FCCF
:102C5C0013172700B307F70083A707001387170084
:102C6C00832644FE930744FC93962600B387F60014
:102C7C0023A0E700832704FA83C70700E39A07FA27
:102C8C00832784F92320F4FA6F004004832704FA85
:102C9C0003C707009307C0026302F702832704FAF5
:102CAC0083C60700835764F913F7F70F832704FAD9
:102CBC0033C7E6001377F70F2380E700032704FAE6
:102CCC00831724F9B307F7002320F4FA032784F9B8
:102CDC008327C4F93307F700832704FAE3E8E7FAFC
:102CEC00832784F92320F4FA6F008004130744FA35
:102CFC00930704FA9305070013850700EF00804142
:102D0C002324A4FE032784FE930744FC13172700F7
:102D1C00B307F70083A7070013871700832684FEE9
:102D2C00930744FC93962600B387F60023A0E70094
:102D3C00832704FA83C70700E39A07FA832784F9E9
:102D4C002320F4FA6F004004832704FA03C707001A
:102D5C009307C0026302F702832704FA83C60700B5
:102D6C00835744F913F7F70F832704FA33C7E600A8
:102D7C001377F70F2380E700032704FA831724F94E
:102D8C00B307F7002320F4FA032784F98327C4F947
:102D9C003307F700832704FAE3E8E7FA232604FE57
:102DAC006F0080060327C4FE930744FC131727000B
:102DBC00B307F70083A70700035704F9930507002F
:102DCC0013850700EF00901D930705002318F4F8F6
:102DDC000327C4FE930744FA13172700B307F70021
:102DEC0083A70700035704F9930507001385070011
:102DFC00EF00D01A930705002318F4F88327C4FEBC
:102E0C00938717002326F4FE0327C4FE9307700054
:102E1C00E3FAE7F8835704F9138507008320C1060A
:102E2C00032481061301010767800000130101FDD3
:102E3C00232611022324810213040103232EA4FC54
:102E4C0093870500232AC4FC231DF4FC232604FECF
:102E5C00232404FE232004FE8327C4FD9387F7FF5D
:102E6C00232EF4FC232404FE6F00C01E832784FE53
:102E7C00638E0706232204FE6F008003032704FEE3
:102E8C00832744FE3307F7008326C4FE832744FEC2
:102E9C00B387F600832644FDB387F600034707008B
:102EAC002380E700832744FE938717002322F4FE38
:102EBC00032744FE832784FEE362F7FC0327C4FE4A
:102ECC00832744FEB307F700032744FDB307F7003D
:102EDC001307C0022380E700032784FE8327C4FE68
:102EEC00B307F700938717002326F4FE8317A4FD7E
:102EFC009397070193D707019387170093970701BF
:102F0C0093D70701231DF4FC8357A4FD93F7770097
:102F1C0013077000638EE70E13077000634AF712F5
:102F2C00130760006346F7121307500063D2E70AD9
:102F3C00130720006346F70063DC07006F004011A5
:102F4C001387D7FF9307100063E4E7106F0040046A
:102F5C008317A4FD93D737409397070193D7074165
:102F6C009397070193D7070193F7370037570080E2
:102F7C001307871493972700B307F70083A707005D
:102F8C002320F4FE930740002324F4FE6F00800CF2
:102F9C008317A4FD93D737409397070193D7074125
:102FAC009397070193D7070193F7370037570080A2
:102FBC001307871593972700B307F70083A707001C
:102FCC002320F4FE930780002324F4FE6F00800876
:102FDC008317A4FD93D737409397070193D70741E5
:102FEC009397070193D7070193F737003757008062
:102FFC001307871693972700B307F70083A70700DB
:10300C002320F4FE930780002324F4FE6F00800439
:10301C008317A4FD93D737409397070193D70741A4
:10302C009397070193D7070193F737003757008021
:10303C001307871793972700B307F70083A7070099
:10304C002320F4FE930780002324F4FE6F008000FD
:10305C00130000000327C4FE832784FEB307F70088
:10306C00938717000327C4FDE3E2E7E08327C4FD41
:10307C0093871700232EF4FC6F000002032744FDF6
:10308C008327C4FEB307F700238007008327C4FE01
:10309C00938717002326F4FE0327C4FE8327C4FD61
:1030AC00E36EF7FC13000000130000008320C10244
:1030BC00032481021301010367800000130101FD49
:1030CC002326110223248102130401039307050014
:1030DC00A30FF4FC8347F4FD93B7070393B71700D2
:1030EC0013F7F70F8347F4FD93B7A70393F7F70F85
:1030FC00B377F70093F7F70FA307F4FE8347F4FEBB
:10310C00138507008320C1020324810213010103EC
:10311C0067800000130101FD232611022324810284
:10312C0013040103232EA4FC232CB4FC8327C4FD1D
:10313C0083A707002326F4FE232404FE6F00003A25
:10314C008327C4FE83C70700A303F4FE034774FE62
:10315C009307C002631AF7008327C4FE93871700F6
:10316C002326F4FE6F000039032784FE93077000BA
:10317C006308F730032784FE9307700063ECE73293
:10318C00032784FE930760006302F72A032784FE5B
:10319C009307600063E0E732032784FE9307500037
:1031AC006304F71C032784FE9307500063E4E730A5
:1031BC00032784FE930740006308F714032784FE5B
:1031CC009307400063E8E72E032784FE9307300043
:1031DC006302F720032784FE9307300063ECE72C8F
:1031EC00832784FE638A0700032784FE930720004D
:1031FC00630CF7086F00002C834774FE13850700DF
:10320C00EFF0DFEB9307050063880700930740009E
:10321C002324F4FE6F00C005034774FE9307B0022D
:10322C006308F700034774FE9307D0026318F70096
:10323C00930720002324F4FE6F008003034774FEE1
:10324C009307E0026318F700930750002324F4FE61
:10325C006F000002930710002324F4FE832784FDE3
:10326C009387470003A707001307170023A0E70065
:10327C00832784FD83A7070013871700832784FD0A
:10328C0023A0E7006F00C024834774FE138507005A
:10329C00EFF0DFE29307050063820702930740001B
:1032AC002324F4FE832784FD9387870003A707005C
:1032BC001307170023A0E7006F008021034774FE5B
:1032CC009307E0026312F702930750002324F4FEE5
:1032DC00832784FD9387870003A707001307170034
:1032EC0023A0E7006F00C01E930710002324F4FEF8
:1032FC00832784FD9387870003A707001307170014
:10330C0023A0E7006F00C01C034774FE9307E00284
:10331C006312F702930750002324F4FE832784FDE5
:10332C009387070103A707001307170023A0E700E3
:10333C006F00C018834774FE13850700EFF01FD889
:10334C0093070500639C0716930710002324F4FED3
:10335C00832784FD9387070103A707001307170032
:10336C0023A0E7006F008015034774FE93075004F9
:10337C006308F700034774FE930750066312F702C5
:10338C00930730002324F4FE832784FD93874701A1
:10339C0003A707001307170023A0E7006F00801294
:1033AC00834774FE13850700EFF05FD19307050088
:1033BC00639A0710930710002324F4FE832784FDDF
:1033CC009387470103A707001307170023A0E70003
:1033DC006F00400F034774FE9307B0026308F700B9
:1033EC00034774FE9307D0026312F7029307600041
:1033FC002324F4FE832784FD9387C70003A70700CB
:10340C001307170023A0E7006F00800C9307100030
:10341C002324F4FE832784FD9387C70003A70700AA
:10342C001307170023A0E7006F00800A834774FE80
:10343C0013850700EFF09FC893070500638207020E
:10344C00930770002324F4FE832784FD9387870160
:10345C0003A707001307170023A0E7006F0040071E
:10346C00930710002324F4FE832784FD93878701A0
:10347C0003A707001307170023A0E7006F00400500
:10348C00834774FE13850700EFF05FC393070500B5
:10349C00639E0702930710002324F4FE832784FD08
:1034AC009387470003A707001307170023A0E70023
:1034BC006F00C001130000006F00800113000000BA
:1034CC006F000001130000006F008000130000006B
:1034DC008327C4FE938717002326F4FE8327C4FE9C
:1034EC0083C7070063880700032784FE9307100037
:1034FC00E318F7C48327C4FD0327C4FE23A0E70009
:10350C00832784FE138507008320C10203248102D4
:10351C001301010367800000130101FD2326110232
:10352C002324810213040103232EA4FC0327C4FDCE
:10353C0093075000630EF7080327C4FD9307500050
:10354C0063C0E70A0327C4FD93074000630AF7062C
:10355C000327C4FD9307400063C4E7080327C4FD99
:10356C00930730006306F7040327C4FD930730006C
:10357C0063C8E7060327C4FD93071000630AF7002E
:10358C000327C4FD93072000630CF7006F00400570
:10359C00B757008083A787182326F4FE6F00C0045A
:1035AC00B757008083A7C7182326F4FE6F00C0030B
:1035BC00B757008083A707192326F4FE6F00C002BB
:1035CC00B757008083A747192326F4FE6F00C0016C
:1035DC00B757008083A7C71A2326F4FE6F00C000DC
:1035EC00232604FE130000008327C4FE1385070066
:1035FC008320C102032481021301010367800000B0
:10360C00130101FD2326110223248102130401035B
:10361C009307050013870500A30FF4FC930707001D
:10362C00231EF4FCA30704FEA30604FE230704FEDA
:10363C00A30704FE6F00C00B8357C4FD13978701CB
:10364C00135787418307F4FDB347F700939787011E
:10365C0093D7874193F7F70F93F71700A306F4FE60
:10366C008347F4FD93D71700A30FF4FC0347D4FE54
:10367C00930710006314F7028357C4FD13870700E8
:10368C00B747000093872700B347F700231EF4FCCD
:10369C00930710002307F4FE6F008000230704FE3D
:1036AC008357C4FD93D71700231EF4FC8347E4FE15
:1036BC00638E07008357C4FD13870700B787FFFF8E
:1036CC00B367F700231EF4FC6F00C0018357C4FDE1
:1036DC0013870700B78700009387F7FFB377F700CE
:1036EC00231EF4FC8347F4FE93871700A307F4FE14
:1036FC000347F4FE93077000E3F0E7F48357C4FD2F
:10370C00138507008320C1020324810213010103E6
:10371C0067800000130101FE232E1100232C810071
:10372C001304010293070500138705002317F4FE09
:10373C00930707002316F4FE8357E4FE93F7F70F65
:10374C000357C4FE9305070013850700EFF05FEBEA
:10375C00930705002316F4FE8357E4FE93D78700E6
:10376C009397070193D7070193F7F70F0357C4FEFD
:10377C009305070013850700EFF09FE893070500FA
:10378C002316F4FE8357C4FE138507008320C10162
:10379C00032481011301010267800000130101FE63
:1037AC00232E1100232C8100130401022326A4FED6
:1037BC00938705002315F4FE8327C4FE9397070116
:1037CC0093D707410357A4FE930507001385070001
:1037DC00EF00C004930705002315F4FE8327C4FEF5
:1037EC0093D707019397070193D707410357A4FE7B
:1037FC009305070013850700EF00400293070500AF
:10380C002315F4FE8357A4FE138507008320C10102
:10381C00032481011301010267800000130101FEE2
:10382C00232E1100232C81001304010293070500A1
:10383C00138705002317F4FE930707002316F4FEE5
:10384C008357E4FE0357C4FE930507001385070056
:10385C00EFF05FEC93070500138507008320C1018F
:10386C00032481011301010267800000130101FE92
:10387C00232E1100232C810013040102A30704FE44
:10388C008347F4FE63880700B757008013858708C9
:10389C00EF1080158347F4FE138507008320C101C8
:1038AC00032481011301010267800000130101FF51
:1038BC0023261100232481001304010113000000AE
:1038CC00138507008320C10003248100130101012B
:1038DC0067800000130101FF2326110023248100BF
:1038EC0013040101EFF09FFC13070500B75700808C
:1038FC0023A2E71A130000008320C10003248100D7
:10390C001301010167800000130101FF2326110040
:10391C002324810013040101EFF05FF91307050064
:10392C00B757008023A4E71A130000008320C100BE
:10393C00032481001301010167800000130101FFC2
:10394C002326110023248100130401019307100086
:10395C00138507008320C10003248100130101019A
:10396C0067800000130101FE232E1100232C81001F
:10397C00130401022326A4FE9307100013850700ED
:10398C008320C1010324810113010102678000001F
:10399C00130101FE232E1100232C810013040102BC
:1039AC002326A4FE2324B4FE2322C4FE130000000D
:1039BC008320C101032481011301010267800000EF
:1039CC00130101FE232E1100232C8100130401028C
:1039DC002326A4FE8327C4FE2380070013000000C7
:1039EC008320C101032481011301010267800000BF
:1039FC00130101FD23261102232481021304010368
:103A0C00232EA4FC232CB4FC8327C4FD2326F4FE14
:103A1C006F0000018327C4FE938717002326F4FE52
:103A2C008327C4FE83C70700638A0700832784FDAE
:103A3C001387F7FF232CE4FCE39E07FC0327C4FE4B
:103A4C008327C4FDB307F740138507008320C10209
:103A5C00032481021301010367800000130101FD9F
:103A6C00232611022324810213040103232EA4FC18
:103A7C00232604FE6F0000040327C4FE93070700EF
:103A8C0093972700B387E7009397170013860700D7
:103A9C008327C4FD83A70700938617000327C4FD63
:103AAC002320D70083C70700B307F600938707FDD1
:103ABC002326F4FE8327C4FD83A7070003C7070052
:103ACC009307F00263FCE7008327C4FD83A707007C
:103ADC0003C7070093079003E3F0E7FA8327C4FEBC
:103AEC00138507008320C102032481021301010303
:103AFC0067800000130101F8232E1106232C810688
:103B0C0013040108232EA4F8232CB4F8232AC4F898
:103B1C002328D4F82326E4F82324F4F8B75700809C
:103B2C0083A7C7192324F4FE832784F893F707048B
:103B3C0063880700B757008083A7071A2324F4FE75
:103B4C00832784F893F7070163880700832784F899
:103B5C0093F7E7FF2324F4F8032744F993071000A5
:103B6C0063D8E700032744F99307400263D6E700C4
:103B7C00930700006F004031832784F893F71700F8
:103B8C006388070093070003A307F4FE6F00C000CF
:103B9C0093070002A307F4FE230704FE832784F88F
:103BAC0093F72700638A0706832784F963D40702F7
:103BBC009307D0022307F4FE832784F9B307F04060
:103BCC00232CF4F8832704F99387F7FF2328F4F8C0
:103BDC006F008004832784F893F74700638E0700F7
:103BEC009307B0022307F4FE832704F99387F7FFAA
:103BFC002328F4F86F004002832784F893F787009A
:103C0C00638C0700930700022307F4FE832704F953
:103C1C009387F7FF2328F4F8832784F893F7070298
:103C2C00638C0702032744F993070001631AF7001A
:103C3C00832704F99387E7FF2328F4F86F00C0016A
:103C4C00032744F9930780006318F700832704F9CE
:103C5C009387F7FF2328F4F8232204FE832784F9A3
:103C6C0063900708832744FE138717002322E4FE82
:103C7C00938707FFB3878700130700032388E7FAAE
:103C8C006F008006832784F9032744F99305070006
:103C9C0013850700EF0010689307050013870700D2
:103CAC00832784FE3387E700832744FE938617001F
:103CBC002322D4FE03470700938707FFB3878700AF
:103CCC002388E7FA832784F9032744F9930507002F
:103CDC0013850700EF00905F93070500232CF4F881
:103CEC00832784F9E39007FA032744FE8327C4F85B
:103CFC0063D6E700832744FE2326F4F8032704F950
:103D0C008327C4F8B307F7402328F4F8832784F8F3
:103D1C0093F71701639607026F0080018327C4F99C
:103D2C0013871700232EE4F8130700022380E70003
:103D3C00832704F91387F7FF2328E4F8E340F0FE08
:103D4C008347E4FE638C07008327C4F913871700AD
:103D5C00232EE4F80347E4FE2380E700832784F84E
:103D6C0093F7070263820706032744F99307800041
:103D7C00631EF7008327C4F913871700232EE4F87A
:103D8C00130700032380E7006F000004032744F9A6
:103D9C0093070001631AF7028327C4F913871700EE
:103DAC00232EE4F8130700032380E700B7570080A5
:103DBC0003A7C7198327C4F993861700232ED4F8B9
:103DCC00034717022380E700832784F893F7070142
:103DDC00639207046F0080018327C4F913871700CF
:103DEC00232EE4F80347F4FE2380E700832704F92D
:103DFC001387F7FF2328E4F8E340F0FE6F008001FF
:103E0C008327C4F913871700232EE4F81307000344
:103E1C002380E7008327C4F81387F7FF2326E4F8F1
:103E2C00032744FEE34EF7FC6F0040028327C4F9DE
:103E3C0013871700232EE4F8032744FE130707FF0C
:103E4C0033078700034707FB2380E700832744FEE3
:103E5C001387F7FF2322E4FEE34AF0FC6F00800196
:103E6C008327C4F913871700232EE4F813070002E5
:103E7C002380E700832704F91387F7FF2328E4F84E
:103E8C00E340F0FE8327C4F9138507008320C107A4
:103E9C00032481071301010867800000130101FA54
:103EAC00232E1104232C810413040106232EA4FABF
:103EBC00232CB4FA232AC4FA2328D4FA2326E4FAAE
:103ECC00B757008083A7C7192326F4FE8327C4FAAB
:103EDC0093F7070463880700B757008083A7071A76
:103EEC002326F4FE232204FE232404FE6F00C00AC2
:103EFC00832784FE63800702832744FE1387170001
:103F0C002322E4FE938707FFB38787001307A003E0
:103F1C00238EE7FC832784FE032784FBB307F7007B
:103F2C0083C7070093D7470093F7F70F1387070052
:103F3C008327C4FE3387E700832744FE938617004C
:103F4C002322D4FE03470700938707FFB38787001C
:103F5C00238EE7FC832784FE032784FBB307F7003B
:103F6C0083C7070093F7F7000327C4FE3307F70056
:103F7C00832744FE938617002322D4FE03470700B1
:103F8C00938707FFB3878700238EE7FC832784FE84
:103F9C00938717002324F4FE032784FE9307500015
:103FAC00E3D8E7F48327C4FA93F707016398070271
:103FBC006F0080018327C4FB13871700232EE4FABC
:103FCC00130700022380E700832744FB1387F7FFC6
:103FDC00232AE4FA032744FEE34EF7FC232404FED1
:103FEC006F0000038327C4FB13871700232EE4FA0A
:103FFC00032784FE130707FF330787000347C7FD1A
:10400C002380E700832784FE938717002324F4FE84
:10401C00032784FE832744FEE346F7FC6F008001F0
:10402C008327C4FB13871700232EE4FA130700021F
:10403C002380E700832744FB1387F7FF232AE4FA46
:10404C00032744FEE34EF7FC8327C4FB13850700CC
:10405C008320C1050324810513010106678000003C
:10406C00130101FA232E1104232C8104232A910419
:10407C0013040106232EA4FA232CB4FA232AC4FA1F
:10408C002328D4FA2326E4FA232204FE232604FE52
:10409C006F00C01B8327C4FE63800702832744FE86
:1040AC00138717002322E4FE938707FFB38787004B
:1040BC001307E002238EE7FC8327C4FE032784FB4F
:1040CC00B307F70083C707002324F4FE832784FE7D
:1040DC0063960702B757008003A7C719832744FECE
:1040EC00938617002322D4FE03470700938707FF0C
:1040FC00B3878700238EE7FC6F008014032784FEB0
:10410C009307300663D8E70AB757008083A4C71912
:10411C00832784FE9305400613850700EF00901A51
:10412C00930705003387F400832744FE938617001A
:10413C002322D4FE03470700938707FFB38787002A
:10414C00238EE7FC832784FE930540061385070026
:10415C00EF00901F930705002324F4FEB75700804F
:10416C0083A4C719832784FE9305A0001385070039
:10417C00EF005015930705003387F400832744FEA6
:10418C00938617002322D4FE03470700938707FF6B
:10419C00B3878700238EE7FC832784FE9305A0005A
:1041AC0013850700EF00501A930705002324F4FE33
:1041BC006F004006032784FE9307900063DCE7043E
:1041CC00B757008083A4C719832784FE9305A000EA
:1041DC0013850700EF00100F930705003387F400D9
:1041EC00832744FE938617002322D4FE034707003F
:1041FC00938707FFB3878700238EE7FC832784FE12
:10420C009305A00013850700EF0010149307050019
:10421C002324F4FEB757008003A7C719832784FE15
:10422C003307F700832744FE938617002322D4FE1E
:10423C0003470700938707FFB3878700238EE7FCAC
:10424C008327C4FE938717002326F4FE0327C4FE9E
:10425C0093073000E3D0E7E48327C4FA93F7070110
:10426C00639807026F0080018327C4FB1387170034
:10427C00232EE4FA130700022380E700832744FB74
:10428C001387F7FF232AE4FA032744FEE34EF7FCD7
:10429C00232604FE6F0000038327C4FB138717003B
:1042AC00232EE4FA0327C4FE130707FF3307870006
:1042BC000347C7FD2380E7008327C4FE93871700BD
:1042CC002326F4FE0327C4FE832744FEE346F7FCB3
:1042DC006F0080018327C4FB13871700232EE4FA99
:1042EC00130700022380E700832744FB1387F7FFA3
:1042FC00232AE4FA032744FEE34EF7FC8327C4FB8E
:10430C00138507008320C1050324810583244105FF
:10431C001301010667800000130101FB2326110421
:10432C002324810413040105232EA4FA232CB4FAAC
:10433C00232AC4FA8327C4FB2320F4FE6F00C06435
:10434C00832784FB03C70700930750026300F7021F
:10435C00032784FB832704FE938617002320D4FEB7
:10436C00034707002380E7006F004061232C04FC07
:10437C00832784FB93871700232CF4FA832784FB71
:10438C0083C70700130700036380E70813070003C4
:10439C006344F7081307D0026388E7021307D002BF
:1043AC00634CF7061307B0026388E7021307B002E9
:1043BC006344F706130700026388E7021307300211
:1043CC00638CE7026F004005832784FD93E70701A8
:1043DC00232CF4FC6FF0DFF9832784FD93E747006F
:1043EC00232CF4FC6FF0DFF8832784FD93E7870020
:1043FC00232CF4FC6FF0DFF7832784FD93E707028F
:10440C00232CF4FC6FF0DFF6832784FD93E7170071
:10441C00232CF4FC6FF0DFF59307F0FF232AF4FC58
:10442C00832784FB03C707009307F00263F4E702BA
:10443C00832784FB03C707009307900363ECE70013
:10444C00930784FB13850700EFF04FE1232AA4FCAC
:10445C006F004005832784FB03C707009307A00266
:10446C006312F704832784FB93871700232CF4FA39
:10447C00832744FB13874700232AE4FA83A707000A
:10448C00232AF4FC832744FD63DE0700832744FDC5
:10449C00B307F040232AF4FC832784FD93E707013C
:1044AC00232CF4FC9307F0FF2328F4FC832784FBD4
:1044BC0003C707009307E0026310F708832784FB08
:1044CC0093871700232CF4FA832784FB03C7070078
:1044DC009307F00263F4E702832784FB03C707000A
:1044EC009307900363ECE700930784FB13850700A5
:1044FC00EFF0CFD62328A4FC6F004003832784FB66
:10450C0003C707009307A0026312F702832784FBFB
:10451C0093871700232CF4FA832744FB1387470057
:10452C00232AE4FA83A707002328F4FC832704FD3D
:10453C0063D40700232804FC9307F0FF2326F4FC24
:10454C00832784FB03C707009307C006630AF700A1
:10455C00832784FB03C707009307C004631EF7007F
:10456C00832784FB83C707002326F4FC832784FB63
:10457C0093871700232CF4FA9307A0002322F4FE50
:10458C00832784FB83C7070013078007638CE72E00
:10459C00130780076346F730130750076380E7362D
:1045AC0013075007634EF72E130730076386E71087
:1045BC00130730076346F72E130700076382E71EC5
:1045CC0013070007634EF72C1307F0066380E72AE6
:1045DC001307F0066346F72C13079006638AE72A45
:1045EC0013079006634EF72A130740066382E72AE7
:1045FC00130740066346F72A130730066388E70261
:10460C0013073006634EF72813071006638AE71E5C
:10461C00130710066346F72813071004638CE71C76
:10462C0013078005638AE7246F008027832784FDA6
:10463C0093F70701639807026F008001832704FE3C
:10464C00138717002320E4FE130700022380E700E2
:10465C00832744FD9387F7FF232AF4FC832744FD2B
:10466C00E34EF0FC832744FB13874700232AE4FA2C
:10467C0083A60700832704FE138717002320E4FE7C
:10468C0013F7F60F2380E7006F008001832704FEE9
:10469C00138717002320E4FE130700022380E70092
:1046AC00832744FD9387F7FF232AF4FC832744FDDB
:1046BC00E34EF0FC6F00802C832744FB13874700EC
:1046CC00232AE4FA83A70700232EF4FC8327C4FDD6
:1046DC0063980700B757008093870711232EF4FCCB
:1046EC00832704FD938507000325C4FDEFF04FB02D
:1046FC00930705002324F4FC832784FD93F707011B
:10470C00639807026F008001832704FE138717004C
:10471C002320E4FE130700022380E700832744FDD7
:10472C001387F7FF232AE4FC032784FCE34EF7FCF2
:10473C00232404FE6F0000030327C4FD9307170016
:10474C00232EF4FC832704FE938617002320D4FE2B
:10475C00034707002380E700832784FE9387170015
:10476C002324F4FE032784FE832784FCE346F7FC12
:10477C006F008001832704FE138717002320E4FEBB
:10478C00130700022380E700832744FD1387F7FFFC
:10479C00232AE4FC032784FCE34EF7FC6F00001E85
:1047AC00032744FD9307F0FF631CF7009307800079
:1047BC00232AF4FC832784FD93E71700232CF4FCB5
:1047CC00832744FB13874700232AE4FA83A70700B7
:1047DC0093850700832784FD032704FD832644FD6E
:1047EC0013060001032504FEEFF0CFB02320A4FE36
:1047FC006F00C018832784FD93E70704232CF4FC77
:10480C000327C4FC9307C006631AF702832744FBF3
:10481C0013874700232AE4FA83A70700032784FDA4
:10482C00832604FD032644FD93850700032504FE1F
:10483C00EFF0CFE62320A4FE6F004014832744FB47
:10484C0013874700232AE4FA83A70700032784FD74
:10485C00832604FD032644FD93850700032504FEEF
:10486C00EFF01F802320A4FE6F00401193078000FF
:10487C002322F4FE6F00C008832784FD93E707040E
:10488C00232CF4FC930700012322F4FE6F00400755
:10489C00832784FD93E72700232CF4FC6F0000068C
:1048AC00832784FB03C7070093075002630CF700B0
:1048BC00832704FE138717002320E4FE13075002FE
:1048CC002380E700832784FB83C7070063800702EC
:1048DC00032784FB832704FE938617002320D4FE32
:1048EC00034707002380E7006F004009832784FB00
:1048FC009387F7FF232CF4FA6F0040081300000095
:10490C000327C4FC9307C006631EF700832744FBF0
:10491C0013874700232AE4FA83A707002326F4FE13
:10492C006F00C003832784FD93F72700638E070075
:10493C00832744FB13874700232AE4FA83A7070045
:10494C002326F4FE6F008001832744FB1387470066
:10495C00232AE4FA83A707002326F4FE8325C4FE4A
:10496C00832784FD032704FD832644FD032644FE90
:10497C00032504FEEFF00F982320A4FE832784FB6D
:10498C0093871700232CF4FA832784FB83C7070033
:10499C00E398079A832704FE23800700032704FE6D
:1049AC008327C4FBB307F740138507008320C1049A
:1049BC00032481041301010567800000130101FE2B
:1049CC00232E1100232C81001304010293070500F0
:1049DC00A307F4FE130000008320C101032481010E
:1049EC001301010267800000130101BB2326114251
:1049FC002324814213040143232EA4BC2322B4009C
:104A0C002324C4002326D4002328E400232AF40002
:104A1C00232C0401232E1401232404FE93070402E7
:104A2C00232CF4BC832784BD938747FE2322F4BE3A
:104A3C00032744BE930784BE130607008325C4BD19
:104A4C0013850700EFF05F8D930784BE2326F4FED9
:104A5C006F00C0028327C4FE83C7070013850700BD
:104A6C00EFF0DFF5832784FE938717002324F4FEF1
:104A7C008327C4FE938717002326F4FE8327C4FEE6
:104A8C0083C70700E39807FC832784FE1385070080
:104A9C008320C14203248142130101456780000039
:104AAC00130605001305000093F615006384060039
:104ABC003305C50093D5150013161600E39605FEB5
:104ACC00678000006340050663C605061386050073
:104ADC00930505001305F0FF630C06029306100006
:104AEC00637AB6006358C00013161600939616002E
:104AFC00E36AB6FE1305000063E6C500B385C54046
:104B0C003365D50093D6160013561600E39606FEB1
:104B1C006780000093820000EFF05FFB13850500B7
:104B2C00678002003305A0406348B000B305B04075
:104B3C006FF0DFF9B305B04093820000EFF01FF97E
:104B4C003305A040678002009382000063CA050011
:104B5C00634C0500EFF09FF713850500678002009A
:104B6C00B305B040E35805FE3305A040EFF01FF647
:084B7C003305B0406780020020
:104B8400537461746963000048656170000000003B
:104B9400537461636B000000366B20706572666F3E
:104BA400726D616E63652072756E20706172616DE5
:104BB400657465727320666F7220636F72656D61D0
:104BC400726B2E0A00000000366B2076616C6964FB
:104BD4006174696F6E2072756E20706172616D65AB
:104BE4007465727320666F7220636F72656D617293
:104BF4006B2E0A0050726F66696C652067656E657E
:104C0400726174696F6E2072756E20706172616D6D
:104C1400657465727320666F7220636F72656D616F
:104C2400726B2E0A00000000324B20706572666FB2
:104C3400726D616E63652072756E20706172616D54
:104C4400657465727320666F7220636F72656D613F
:104C5400726B2E0A00000000324B2076616C69648E
:104C64006174696F6E2072756E20706172616D651A
:104C74007465727320666F7220636F72656D617202
:104C84006B2E0A005B25755D4552524F5221206CF4
:104C94006973742063726320307825303478202D52
:104CA4002073686F756C6420626520307825303419
:104CB400780A00005B25755D4552524F5221206DE4
:104CC4006174726978206372632030782530347897
:104CD400202D2073686F756C642062652030782500
:104CE4003034780A000000005B25755D4552524F50
:104CF40052212073746174652063726320307825B7
:104D0400303478202D2073686F756C6420626520C0
:104D14003078253034780A00436F72654D61726BC8
:104D24002053697A65202020203A20256C750A00DA
:104D3400546F74616C207469636B7320202020208D
:104D4400203A20256C750A00546F74616C207469D4
:104D54006D65202873656373293A2025640A000071
:104D6400497465726174696F6E732F536563202093
:104D7400203A2025640A00004552524F5221204D0A
:104D8400757374206578656375746520666F722029
:104D94006174206C656173742031302073656373B2
:104DA40020666F7220612076616C6964207265737D
:104DB400756C74210A000000497465726174696F2E
:104DC4006E73202020202020203A20256C750A00B4
:104DD40047434331352E312E30000000436F6D7050
:104DE400696C65722076657273696F6E203A20254E
:104DF400730A00002D4F30202D67202D6D617263E2
:104E0400683D7276333269202D6D6162693D696C4B
:104E1400703332202D666E6F2D6275696C74696E05
:104E2400202D6E6F737461727466696C6573202DC6
:104E340044504552464F524D414E43455F52554EA4
:104E44003D3120202D6C676363200000436F6D703B
:104E5400696C657220666C6167732020203A202596
:104E6400730A0000535441434B0000004D656D6FBD
:104E74007279206C6F636174696F6E20203A20250B
:104E8400730A000073656564637263202020202028
:104E940020202020203A203078253034780A000061
:104EA4005B25645D6372636C697374202020202029
:104EB40020203A203078253034780A005B25645D60
:104EC4006372636D617472697820202020203A2017
:104ED4003078253034780A005B25645D637263732F
:104EE400746174652020202020203A2030782530F9
:104EF40034780A005B25645D63726366696E616C75
:104F04002020202020203A203078253034780A00D0
:104F1400436F7272656374206F7065726174696F38
:104F24006E2076616C6964617465642E20536565D6
:104F340020524541444D452E6D6420666F722072A7
:104F4400756E20616E64207265706F7274696E672D
:104F54002072756C65732E0A000000004572726F32
:104F640072732064657465637465640A00000000EC
:104F740043616E6E6F742076616C69646174652040
:104F84006F7065726174696F6E20666F72207468E9
:104F940065736520736565642076616C7565732C33
:104FA40020706C6561736520636F6D70617265203C
:104FB4007769746820726573756C7473206F6E20E2
:104FC40061206B6E6F776E20706C6174666F726DAA
:104FD4002E0A000035303132000000003132333403
:104FE400000000002D383734000000002B3132322D
:104FF4000000000033352E3534343030000000001A
:105004002E31323334353030000000002D31313050
:105014002E373030000000002B302E363434303040
:1050240000000000352E353030652B3300000000C1
:105034002D2E313233652D32000000002D383765B6
:105044002B383332000000002B302E36652D3132E0
:105054000000000054302E33652D3146000000005E
:105064002D542E542B2B5471000000003154332E38
:105074003465347A0000000033342E30652D545EDC
:10508400000000004552524F523A20506C65617343
:1050940065206D6F64696679207468652064617445
:1050A40061747970657320696E20636F72655F70D7
:1050B4006F72746D652E68210A000000303132333E
:1050C4003435363738396162636465666768696A9E
:1050D4006B6C6D6E6F707172737475767778797AA4
:1050E400000000003031323334353637383941422C
:1050F400434445464748494A4B4C4D4E4F50515204
:10510400535455565758595A000000003C4E554CBC
:035114004C3E000E
:10511800B0D44033796A14E7C1E3000052BE991154
:105128000856D71F47070000475EBF39A4E53A8EE7
:10513800848D0000844B00808C4B0080944B008051
:10514800D84F0080E04F0080E84F0080F04F00808B
:10515800F84F008004500080105000801C500080E0
:105168002850008034500080405000804C5000800F
:105178005850008064500080705000807C5000803F
:10518800153400001534000066000000010000001E
:0C51980001000000C0500080E8500080C2
:040000058000000077
:00000001FF
